{
  "contractName": "NotesContract",
  "abi": [
    {
      "inputs": [],
      "stateMutability": "nonpayable",
      "type": "constructor"
    },
    {
      "anonymous": false,
      "inputs": [
        {
          "indexed": false,
          "internalType": "uint256",
          "name": "_id",
          "type": "uint256"
        }
      ],
      "name": "NoteAdded",
      "type": "event"
    },
    {
      "anonymous": false,
      "inputs": [
        {
          "indexed": false,
          "internalType": "uint256",
          "name": "_id",
          "type": "uint256"
        }
      ],
      "name": "NoteDeleted",
      "type": "event"
    },
    {
      "anonymous": false,
      "inputs": [
        {
          "indexed": false,
          "internalType": "uint256",
          "name": "_id",
          "type": "uint256"
        }
      ],
      "name": "NoteEdited",
      "type": "event"
    },
    {
      "inputs": [
        {
          "internalType": "uint256",
          "name": "",
          "type": "uint256"
        }
      ],
      "name": "notes",
      "outputs": [
        {
          "internalType": "uint256",
          "name": "id",
          "type": "uint256"
        },
        {
          "internalType": "string",
          "name": "noteTitle",
          "type": "string"
        },
        {
          "internalType": "string",
          "name": "noteContent",
          "type": "string"
        },
        {
          "internalType": "uint256",
          "name": "timeStamp",
          "type": "uint256"
        }
      ],
      "stateMutability": "view",
      "type": "function",
      "constant": true
    },
    {
      "inputs": [],
      "name": "notesCount",
      "outputs": [
        {
          "internalType": "uint256",
          "name": "",
          "type": "uint256"
        }
      ],
      "stateMutability": "view",
      "type": "function",
      "constant": true
    },
    {
      "inputs": [
        {
          "internalType": "string",
          "name": "_noteTitle",
          "type": "string"
        },
        {
          "internalType": "string",
          "name": "_noteContent",
          "type": "string"
        },
        {
          "internalType": "uint256",
          "name": "timeStamp",
          "type": "uint256"
        }
      ],
      "name": "addNote",
      "outputs": [],
      "stateMutability": "nonpayable",
      "type": "function"
    },
    {
      "inputs": [
        {
          "internalType": "uint256",
          "name": "_id",
          "type": "uint256"
        }
      ],
      "name": "deleteNote",
      "outputs": [],
      "stateMutability": "nonpayable",
      "type": "function"
    },
    {
      "inputs": [
        {
          "internalType": "uint256",
          "name": "_id",
          "type": "uint256"
        },
        {
          "internalType": "string",
          "name": "_noteTitle",
          "type": "string"
        },
        {
          "internalType": "string",
          "name": "_noteContent",
          "type": "string"
        }
      ],
      "name": "editNote",
      "outputs": [],
      "stateMutability": "nonpayable",
      "type": "function"
    }
  ],
  "bytecode": "0x608060405234801561001057600080fd5b5060008081905550610a43806100276000396000f3fe608060405234801561001057600080fd5b50600436106100575760003560e01c80630700e0801461005c5780635238d5c61461007857806361c3a7e61461009457806385445449146100c7578063c47177f4146100e5575b600080fd5b610076600480360381019061007191906106ee565b610101565b005b610092600480360381019061008d9190610779565b6101de565b005b6100ae60048036038101906100a99190610804565b6102b5565b6040516100be94939291906108c8565b60405180910390f35b6100cf6103f5565b6040516100dc919061091b565b60405180910390f35b6100ff60048036038101906100fa9190610804565b6103fb565b005b6040518060800160405280600054815260200184815260200183815260200182815250600160008054815260200190815260200160002060008201518160000155602082015181600101908051906020019061015e92919061047b565b50604082015181600201908051906020019061017b92919061047b565b50606082015181600301559050507f47845bae1c19c06fc781e2d5e8c917f9d4d91f4d7cfceda2946276046a0aa8ec6000546040516101ba919061091b565b60405180910390a16000808154809291906101d490610965565b9190505550505050565b604051806080016040528084815260200183815260200182815260200160016000868152602001908152602001600020600301548152506001600085815260200190815260200160002060008201518160000155602082015181600101908051906020019061024e92919061047b565b50604082015181600201908051906020019061026b92919061047b565b50606082015181600301559050507f47845bae1c19c06fc781e2d5e8c917f9d4d91f4d7cfceda2946276046a0aa8ec836040516102a8919061091b565b60405180910390a1505050565b60016020528060005260406000206000915090508060000154908060010180546102de906109dc565b80601f016020809104026020016040519081016040528092919081815260200182805461030a906109dc565b80156103575780601f1061032c57610100808354040283529160200191610357565b820191906000526020600020905b81548152906001019060200180831161033a57829003601f168201915b50505050509080600201805461036c906109dc565b80601f0160208091040260200160405190810160405280929190818152602001828054610398906109dc565b80156103e55780601f106103ba576101008083540402835291602001916103e5565b820191906000526020600020905b8154815290600101906020018083116103c857829003601f168201915b5050505050908060030154905084565b60005481565b600160008281526020019081526020016000206000808201600090556001820160006104279190610501565b6002820160006104379190610501565b600382016000905550507f89af6ba62ab348dc535a3187c267090f834c868a3820cd552a7110c3dc3eedb881604051610470919061091b565b60405180910390a150565b828054610487906109dc565b90600052602060002090601f0160209004810192826104a957600085556104f0565b82601f106104c257805160ff19168380011785556104f0565b828001600101855582156104f0579182015b828111156104ef5782518255916020019190600101906104d4565b5b5090506104fd9190610541565b5090565b50805461050d906109dc565b6000825580601f1061051f575061053e565b601f01602090049060005260206000209081019061053d9190610541565b5b50565b5b8082111561055a576000816000905550600101610542565b5090565b6000604051905090565b600080fd5b600080fd5b600080fd5b600080fd5b6000601f19601f8301169050919050565b7f4e487b7100000000000000000000000000000000000000000000000000000000600052604160045260246000fd5b6105c58261057c565b810181811067ffffffffffffffff821117156105e4576105e361058d565b5b80604052505050565b60006105f761055e565b905061060382826105bc565b919050565b600067ffffffffffffffff8211156106235761062261058d565b5b61062c8261057c565b9050602081019050919050565b82818337600083830152505050565b600061065b61065684610608565b6105ed565b90508281526020810184848401111561067757610676610577565b5b610682848285610639565b509392505050565b600082601f83011261069f5761069e610572565b5b81356106af848260208601610648565b91505092915050565b6000819050919050565b6106cb816106b8565b81146106d657600080fd5b50565b6000813590506106e8816106c2565b92915050565b60008060006060848603121561070757610706610568565b5b600084013567ffffffffffffffff8111156107255761072461056d565b5b6107318682870161068a565b935050602084013567ffffffffffffffff8111156107525761075161056d565b5b61075e8682870161068a565b925050604061076f868287016106d9565b9150509250925092565b60008060006060848603121561079257610791610568565b5b60006107a0868287016106d9565b935050602084013567ffffffffffffffff8111156107c1576107c061056d565b5b6107cd8682870161068a565b925050604084013567ffffffffffffffff8111156107ee576107ed61056d565b5b6107fa8682870161068a565b9150509250925092565b60006020828403121561081a57610819610568565b5b6000610828848285016106d9565b91505092915050565b61083a816106b8565b82525050565b600081519050919050565b600082825260208201905092915050565b60005b8381101561087a57808201518184015260208101905061085f565b83811115610889576000848401525b50505050565b600061089a82610840565b6108a4818561084b565b93506108b481856020860161085c565b6108bd8161057c565b840191505092915050565b60006080820190506108dd6000830187610831565b81810360208301526108ef818661088f565b90508181036040830152610903818561088f565b90506109126060830184610831565b95945050505050565b60006020820190506109306000830184610831565b92915050565b7f4e487b7100000000000000000000000000000000000000000000000000000000600052601160045260246000fd5b6000610970826106b8565b91507fffffffffffffffffffffffffffffffffffffffffffffffffffffffffffffffff82036109a2576109a1610936565b5b600182019050919050565b7f4e487b7100000000000000000000000000000000000000000000000000000000600052602260045260246000fd5b600060028204905060018216806109f457607f821691505b602082108103610a0757610a066109ad565b5b5091905056fea264697066735822122049338eefc1680516525c9eec00a378e4607bf5e78db96ce900eeba68bbc1d0d864736f6c634300080d0033",
  "immutableReferences": {},
  "source": "// SPDX-License-Identifier: GPL-3.0\npragma solidity ^0.8.13;\n\ncontract NotesContract {\n    uint256 public notesCount;\n\n    struct Notes {\n        uint256 id;\n        string noteTitle;\n        string noteContent;\n        uint256 timeStamp;\n    }\n\n    mapping(uint256 => Notes) public notes;\n\n    constructor(){\n        notesCount = 0;\n    }\n\n    event NoteAdded(uint256 _id);\n    event NoteDeleted(uint256 _id);\n    event NoteEdited(uint256 _id);\n\n\n    function addNote(\n        string memory _noteTitle,\n        string memory _noteContent,\n        uint256 timeStamp\n    ) public {\n        notes[notesCount] = Notes(\n            notesCount,\n            _noteTitle,\n            _noteContent,\n            timeStamp\n        );\n        emit NoteAdded(notesCount);\n        notesCount++;\n    }\n\n    function deleteNote(uint256 _id) public {\n        delete notes[_id];\n        emit NoteDeleted(_id);\n    }\n    \n    function editNote(\n        uint256 _id,\n        string memory _noteTitle,\n        string memory _noteContent\n    ) public {\n        notes[_id] = Notes(_id, _noteTitle, _noteContent, notes[_id].timeStamp);\n        emit NoteAdded(_id);\n    }\n}\n",
  "sourcePath": "/Users/andre/workspace/turbine/smart-contracts/contracts/NotesContract.sol",
  "compiler": {
    "name": "solc",
    "version": "0.8.13+commit.abaa5c0e.Emscripten.clang"
  },
  "schemaVersion": "3.4.6",
  "updatedAt": "2022-04-07T22:29:59.686Z",
  "networkType": "ethereum",
  "devdoc": {
    "kind": "dev",
    "methods": {},
    "version": 1
  },
  "userdoc": {
    "kind": "user",
    "methods": {},
    "version": 1
  }
}